{
  "contractName": "DappToken",
  "abi": [
    {
      "constant": true,
      "inputs": [],
      "name": "totalSupply",
      "outputs": [
        {
          "name": "",
          "type": "uint256"
        }
      ],
      "payable": false,
      "stateMutability": "view",
      "type": "function"
    },
    {
      "constant": true,
      "inputs": [
        {
          "name": "",
          "type": "address"
        }
      ],
      "name": "balanceOf",
      "outputs": [
        {
          "name": "",
          "type": "uint256"
        }
      ],
      "payable": false,
      "stateMutability": "view",
      "type": "function"
    },
    {
      "inputs": [
        {
          "name": "_initialSupply",
          "type": "uint256"
        }
      ],
      "payable": false,
      "stateMutability": "nonpayable",
      "type": "constructor"
    }
  ],
  "bytecode": "0x608060405234801561001057600080fd5b5060405160208061018d8339810180604052602081101561003057600080fd5b810190808051906020019092919050505080600160003373ffffffffffffffffffffffffffffffffffffffff1673ffffffffffffffffffffffffffffffffffffffff16815260200190815260200160002081905550806000819055505060f28061009b6000396000f3fe6080604052348015600f57600080fd5b506004361060325760003560e01c806318160ddd14603757806370a08231146053575b600080fd5b603d60a8565b6040518082815260200191505060405180910390f35b609260048036036020811015606757600080fd5b81019080803573ffffffffffffffffffffffffffffffffffffffff16906020019092919050505060ae565b6040518082815260200191505060405180910390f35b60005481565b6001602052806000526040600020600091509050548156fea165627a7a72305820a8d29edaf42881434214bd31cc64f40f6558ee90829bb511eb8d306ef17e32180029",
  "source": "pragma solidity ^0.5.0;\r\n\r\ncontract DappToken {\r\n    //Constructor\r\n    // Set the total number of tokens\r\n    // Read the total number of tokens\r\n\r\nuint256 public totalSupply;\r\nmapping (address => uint256) public balanceOf;\r\n\r\n    constructor (uint256 _initialSupply) public {\r\n        balanceOf[msg.sender] = _initialSupply;\r\n        totalSupply = _initialSupply;\r\n    //allocate the initial supply\r\n\r\n    }\r\n\r\n}\r\n\r\n//web3.eth.getAccounts() - to get list of address\r\n//web3.eth.getAccounts().then( function(s){FirstA=s[0]}) - to get address of index 0\r\n//web3.eth.getAccounts().then(function(acc){accounts=acc;}); ----> accounts[0];\r\n//DappToken.deployed().then(function(i) { token=i;})\r\n//token.totalSupply().then(function(s) { totalSupply = s; })\r\n//totalSupply.toNumber()",
  "sourcePath": "C:/Users/mari/token_sale/contracts/DappToken.sol",
  "compiler": {
    "name": "solc",
    "version": "0.5.8+commit.23d335f2.Emscripten.clang"
  },
  "schemaVersion": "3.0.11",
  "updatedAt": "2019-07-18T05:45:00.475Z",
  "devdoc": {
    "methods": {}
  },
  "userdoc": {
    "methods": {}
  }
}